:060000000A128A11F02F24
:100BC60081309F00403083169F000800F0007008B7
:100BD6008312031399000800071387171930990029
:100BE600181518128312981783169816831218165A
:100BF6008316181383121813080000307102083088
:100C060003197002031C0A2EF001F1010800853059
:100C1600F20072089F057008F20002300310F20D10
:100C2600FF3E031D112E0310720DF30073089F047F
:100C36000330F3009730F200F20B1F2EF30B1F2E3A
:100C4600242E831203131F151F19272E1E08F200C8
:100C5600F3017208F0007308F1000800F501F601CF
:100C6600700871040319682EF701F70AF11B472E65
:100C760001300310F00DF10DFF3E031D3C2E013037
:100C8600F4007408F707392E01300310F50DF60D40
:100C9600FF3E031D482E71087302031D542E700873
:100CA6007202031C5D2E7008F2027108031CF30326
:100CB600F302751401300310F10CF00CFF3E031D16
:100CC6005E2E0130F702031D472E7608F1007508E7
:100CD600F0000800A001A101A501A4010D30F90052
:100CE600FB30F800F80B752EF90B752E7A2EFB01EA
:100CF600FC01831203132608F800F9017808F000B6
:100D06007908F1000A128A1100260A128A1170085F
:100D1600FA007A08A5000D30F900FB30F800F80B50
:100D2600922EF90B922E972E831203132508200775
:100D3600A00021080318210AA1000130FB070318AF
:100D4600FC0A0030FC077C08803AFF0080307F02F6
:100D5600031DAF2E28307B02031C7C2E2830F000AA
:100D66000030F100831203132108F3002008F2007B
:100D76000A128A1131267008F8007808A400A0012A
:100D8600A1010800831686018801FF308500FF3027
:100D9600890087010A128A11EF250A128A110A129E
:100DA6008A11E3250A128A11043083120313AB0059
:100DB6000C30AA003330A900A90BDF2EAA0BDF2EB8
:100DC600AB0BDF2E83120313A201A3018230831221
:100DD6000313AA00DD30A900A90BEF2EAA0BEF2EF4
:100DE60083120313A6010A128A116D260A128A11AA
:100DF6002408A9002908A7000D3083120313AA00AE
:100E0600FB30A900A90B052FAA0B052F70300A127B
:100E16008A11E9250A128A110D3083120313AA00DA
:100E2600FB30A900A90B152FAA0B152F6D300A123E
:100E36008A11E9250A128A110D3083120313AA00BA
:100E4600FB30A900A90B252FAA0B252F831203130C
:100E560027080A128A11E9250A128A110D3083120F
:100E66000313AA00FB30A900A90B372FAA0B372FB3
:100E760083120313A601A60A0A128A116D260A1204
:100E86008A112408A9002908FD000D3083120313D6
:100E9600AA00FB30A900A90B4E2FAA0B4E2F7330C8
:100EA6000A128A11E9250A128A110D3083120313D8
:100EB600AA00FB30A900A90B5E2FAA0B5E2F6B3090
:100EC6000A128A11E9250A128A110D3083120313B8
:100ED600AA00FB30A900A90B6E2FAA0B6E2F7D0866
:100EE6000A128A11E9250A128A110D308312031398
:100EF600AA00FB30A900A90B7E2FAA0B7E2F023079
:100F060083120313A9002908A6000A128A116D2666
:100F16000A128A112408A9002908A8000D30831294
:100F26000313AA00FB30A900A90B972FAA0B972F32
:100F360066300A128A11E9250A128A110D308312C7
:100F46000313AA00FB30A900A90BA72FAA0BA72FF2
:100F560068300A128A11E9250A128A110D308312A5
:100F66000313AA00FB30A900A90BB72FAA0BB72FB2
:100F76008312031328080A128A11E9250A128A1114
:100F86000D3083120313AA00FB30A900A90BC92F49
:100F9600AA0BC92F013083120313A2070318A30A51
:100FA6000030A3072308803AFF0080307F02031D2C
:100FB600DE2F05302202031CE92EE7307D02031CDA
:100FC600E82F831203130614E52EA1307D020318C1
:100FD600E52E831203130610E52EFD01831203137B
:100FE600A001A101A201A301A401A501A601A701D7
:0A0FF600A80183010A128A11C52E1A
:02400E00F13F80
:00000001FF
